:100000000C9462000C948A000C948A000C948A0070
:100010000C948A000C948A000C948A000C948A0038
:100020000C948A000C948A000C948A000C94310E73
:100030000C948A000C948A000C948A000C948A0018
:100040000C9420130C948A000C945A160C948C1661
:100050000C948A000C948A000C948A000C948A00F8
:100060000C94F3110C948A000000000800020100B7
:100070000003040700000000000000000102040863
:100080001020408001020408102001020408102002
:10009000040404040404040402020202020203032E
:1000A0000303030300000000250028002B000000CC
:1000B0000000240027002A006106DA09250E11112C
:1000C000BC162D0E11241FBECFEFD8E0DEBFCDBF72
:1000D00011E0A0E0B1E0E6EDF2E302C005900D9280
:1000E000A03FB107D9F724E0A0EFB1E001C01D9215
:1000F000AE3CB207E1F710E0C2ECD0E004C02297BA
:10010000FE010E94E917C83BD107C9F70E940017FA
:100110000C945E190C940000FF920F931F93CF93E1
:10012000DF93EC01F22E798368838B01000F111F9E
:10013000060F171F1B830A834C831D822B871C8687
:100140001D861E861F8650E0FA01E057FF4FE4919E
:10015000F0E0EE0FFF1FEC55FF4F85919491998BC6
:10016000888BFA01E458FF4F44914A8BC8010E94E2
:10017000FC179F838E83009729F0A80160E070E050
:100180000E942319F0FE04C081E0888719860BC005
:10019000F2FE06C081E0888782E089871A8605C062
:1001A000188681E0898782E08A87DF91CF911F914D
:1001B0000F91FF900895CF93DF93EC018E819F8183
:1001C000009711F00E94941860E08C81DF91CF912C
:1001D0000C94AC14CF93DF93EC0161E08C810E940E
:1001E000AC1460E08C81DF91CF910C94E514CF9238
:1001F000DF92EF92FF920F931F93CF93DF93CDB7D0
:10020000DEB729970FB6F894DEBF0FBECDBF8C01C5
:10021000DC0116968D919C911797892B09F41EC1CC
:100220000E947613F801C484D584E684F7846C199F
:100230007D098E099F09623371058105910580F35F
:10024000F894828193819A838983A681B7817D0105
:10025000EFEFEE1AFE0A8C918987D8011B968C91DC
:100260001B9750960D90BC91A02D81FFBDC01D82A3
:10027000AB32B10509F059C09BB1F8018289982BC6
:1002800098879BB1809589238F838F818E83898501
:1002900087FF02C088858E8358856F8149853E819E
:1002A0002D8189819A81D7015BB9262F3BB900C086
:1002B00046FD252F6BB900C05BB9362F2BB900C0A6
:1002C00045FD352F6BB900C05BB9262F3BB900C087
:1002D00044FD252F6BB900C05BB9362F2BB900C088
:1002E00043FD352F6BB900C05BB9262F3BB900C069
:1002F00042FD252F6BB900C05BB9362F2BB900C06A
:1003000041FD352F6BB900C05BB9262F3BB900C04A
:1003100040FD252F6BB901975BB9362F2BB94D9155
:1003200047FD352F6BB901F65BC0959709F08CC07E
:1003300095B1F8018289982B988795B1809589238A
:100340008F838F818E83898587FF02C088858E8306
:1003500058856F8149853E812D8189819A81D70198
:1003600055B9262F35B900C046FD252F65B900C007
:1003700055B9362F25B900C045FD352F65B900C0E8
:1003800055B9262F35B900C044FD252F65B900C0E9
:1003900055B9362F25B900C043FD352F65B900C0CA
:1003A00055B9262F35B900C042FD252F65B900C0CB
:1003B00055B9362F25B900C041FD352F65B900C0AC
:1003C00055B9262F35B900C040FD252F65B90197D5
:1003D00055B9362F25B94D9147FD352F65B901F631
:1003E00049873E832D832EC09C91F8018289982BEA
:1003F00098879C91809589238F838F818C8388E057
:100400008B8358856F8149853B812C8189819A81B5
:10041000F7015C9347FD252F2C93262F3A9531F059
:10042000441F6C9300C000C000C0F3CF6C93000069
:1004300038E04191019769F7F801B18BA08B4987AA
:100440003B832C839A83898378940E947613D80106
:100450001C966D937D938D939C931F9729960FB651
:10046000F894DEBF0FBECDBFDF91CF911F910F91EA
:10047000FF90EF90DF90CF9008951F93CF93DF937D
:10048000EC01162F60E08C810E94AC141C8361E0AB
:10049000812F0E94AC1460E0812F0E94E514812F0F
:1004A00090E0FC01E057FF4FE491F0E0EE0FFF1FFA
:1004B000EC55FF4F25913491398B288BFC01E45882
:1004C000FF4F84918A8BDF91CF911F910895CF9236
:1004D000DF92EF92FF920F931F93CF93DF93FC0174
:1004E000808191816817790788F5CA01AA27BB27FF
:1004F000082FC32ED42EE52EFF241C2DD22FC5810C
:10050000CC2361F08C9FC0011124092FCC9E600187
:1005100011241D2D2C9F90011124D32F9B01220FFC
:10052000331F260F371F86819781820F931F2085E7
:10053000DC01A20FB11D0C932185DC01A20FB11DBE
:100540001C932285FC01E20FF11DD083DF91CF9136
:100550001F910F91FF90EF90DF90CF9008950F9330
:100560001F93CF93DF93EC018B0188819981DC018C
:10057000ED91FC916F770190F081E02D09958881D4
:100580009981DC01ED91FC91B801660F672F661F20
:10059000770B6F770190F081E02DDF91CF911F9164
:1005A0000F910994DC018D919C91DC01ED91FC91FE
:1005B0000190F081E02D60EF0994DC018D919C9118
:1005C000DC01ED91FC910190F081E02D67EF099441
:1005D000CF93DF93EC0188819981DC01ED91FC914F
:1005E0000190F081E02D69EF099588819981DC0106
:1005F000ED91FC910190F081E02D62E009958881F8
:100600009981DC01ED91FC910190F081E02D64E095
:10061000DF91CF9109941F93CF93DF93EC018A81EF
:100620008823D9F1CE010E94D20288819981DC0110
:10063000ED91FC910190F081E02D69E709958881A9
:100640009981DC01ED91FC91AB81BC810190F0813D
:10065000E02D6C91099588819981DC01ED91FC91E7
:10066000AB81BC810190F081E02D11966C910995D0
:1006700012E08A81181758F4EB81FC81E10FF11D1B
:10068000608170E0CE010E94AF021F5FF2CFCE0109
:10069000DF91CF911F910C94DD02DF91CF911F91DB
:1006A0000895CF92DF92EF92FF920F931F93CF9313
:1006B000DF938C01EB01C42ED22E6EE071E0CE01EF
:1006C0000E9444197C016FE270E0CE010E9439194A
:1006D000009739F46CE570E0CE010E94391900975B
:1006E00011F0EC012196E114F10451F4FE010190A6
:1006F0000020E9F7EC1BEF5FD8011296EC9306C0DF
:10070000EC1AFD0AE394E394F801E282D80113960F
:100710008D919C9114970E949418F801E280F12C1D
:10072000C7010E94FC17D80114969C938E931397CF
:10073000DC01AE0DBF1D1C92FC01C082D182D8012C
:1007400012964C9150E042505109BE010296DF9141
:10075000CF911F910F91FF90EF90DF90CF900C946D
:100760002A19DC018D919C91DC01ED91FC910480B2
:10077000F581E02D09940F931F93CF93DF93FC0134
:100780002085213749F0293709F049C0DF91CF9101
:100790001F910F910C940B03FC01E95AFF4F01903C
:1007A000F081E02D309709F450C0DC01A75BBF4F0A
:1007B0004D915C919A012150310937FD9A01B9019F
:1007C00075956795062F40E050E020E030E04E5FE1
:1007D0005F4F2017A0F4EC01C40FD51F1F81DC016F
:1007E000A20FB31F18961C931897C885D0E8CD9F09
:1007F0001019112418961C932F5F3F4FE8CFDC018E
:10080000A60FB11D17962C911797222311F0189659
:100810001C920896DF91CF911F910F910994FC01D2
:10082000E75AFF4F0190F081E02D309771F0AC0155
:10083000475F5F4FDC01A75BBF4F6C916150822F18
:10084000DF91CF911F910F910994DF91CF911F916B
:100850000F9108950F931F93CF93DF93EC018A01BB
:1008600088819981DC01ED91FC916F70606E01903F
:10087000F081E02D0995B801CE01DF91CF911F9154
:100880000F910C94AF020F931F93CF93DF93EC0162
:100890008A0188819981DC01ED91FC916F7060691A
:1008A0000190F081E02D099588819981DC01ED911D
:1008B000FC91602F6F770190F081E02D0995888180
:1008C0009981DC01ED91FC91B801660F672F661FDD
:1008D000770B0190F081E02DDF91CF911F910F9167
:1008E0000994CF92DF92EF92FF920F931F93CF93D1
:1008F000DF9300D01F92CDB7DEB78C01F42E2A8390
:100900003B8369830E94D202D8018D919C91DC01C6
:10091000ED91FC910190F081E02D698109952A818A
:10092000E22EC22E3B81D32E8C2D8E198F1540F4D2
:10093000F60161916F0170E0C8010E94AF02F4CF2F
:10094000C8010F900F900F90DF91CF911F910F91E1
:10095000FF90EF90DF90CF900C94DD029A01FA01A6
:1009600001900020E9F73197E41BF50B4E2F0C9412
:100970007104AB0161E70C94AE04DC018D919C9194
:10098000DC01ED91FC910190F081E02D0994603D36
:10099000B9F028F4603961F0603C71F00895603E70
:1009A00019F0643F89F00895FC01E55BFF4F0FC02B
:1009B000FC01E35BFF4F0BC0FC01E15BFF4F07C095
:1009C000FC01EF5AFF4F03C0FC01ED5AFF4F51836A
:1009D000408308956F3F29F4FC01EB5AFF4F518388
:1009E00040830895875A9F4FFC01518340830895A7
:1009F000FC0115821682178280E090E0DF01A80FCB
:100A0000B91F18961C92019680349105B9F7DF0141
:100A1000A85BBF4F1C9211961D921C92EB5AFF4F80
:100A20000190F081E02D309709F009940895FC01C0
:100A30001282148213820C94F804CF93DF93EC019A
:100A400088819981DC01ED91FC910680F781E02D90
:100A50000995FE01E85BFF4F20812223B1F0873F1B
:100A6000910531F41082CE01DF91CF910C94BB033C
:100A7000FE01E75BFF4F20813181C20FD31F8887C2
:100A80002F5F3F4F318320839DC02D81222309F4A6
:100A90005EC0803891050CF05AC09FEF920F9D8385
:100AA000FE01E90FF11D808791118CC08E81882392
:100AB00009F488C0803DE9F148F48039E9F0803CD0
:100AC00009F043C0FE01E15BFF4F36C0803E19F0E4
:100AD000843F19F13AC0FE01E55BFF4F0190F081C0
:100AE000E02D309791F18885698570E0B0E88B9FA3
:100AF000600D711D112427C0FE01E35BFF4F0190C3
:100B0000F081E02D309709F18885698570E090E8E3
:100B1000899F600D711D112416C0FE01ED5AFF4F13
:100B20000190F081E02D309781F0688570E0898533
:100B30000BC0FE01EF5AFF4F0190F081E02D30977E
:100B400021F0688570E08F8109951E823BC0803F4F
:100B500091052CF4282F2F702F83807F9927803EBA
:100B6000910521F154F4803C910511F1803D9105EE
:100B7000F9F08039910531F519C0843F9105B1F044
:100B800054F4803F9105F1F481E08083C75BDF4F2F
:100B90001982188217C0893F910571F08F3F910526
:100BA00089F4CE01DF91CF910C94F80492E001C05A
:100BB00091E09D838E8306C080EF91E0DF91CF911D
:100BC0000C94E802DF91CF9108958F929F92AF929B
:100BD000BF92CF92DF92EF92FF921F93CF93DF935A
:100BE000EB014A01690161E08DE00E94AC1410E064
:100BF000EE24D7FCE094FE2CAA2497FCA094BA2CF7
:100C0000812F90E08C179D0794F4C701B6010E94D4
:100C1000991361E08DE00E94E514C501B4010E94C2
:100C2000991360E08DE00E94E5141F5FE9CFDF912A
:100C3000CF911F91FF90EF90DF90CF90BF90AF903A
:100C40009F908F900895CF93DF93EC0161E08DE04A
:100C50000E94AC1422ED30E048E250E062E070E027
:100C6000CE010E94E5056AEF70E080E090E00E940E
:100C7000991322ED30E048E250E064E070E0CE01EC
:100C80000E94E5056DE770E080E090E0DF91CF9194
:100C90000C949913CF93DF93EC0126E08DE294E05E
:100CA0000E94FE158DE294E099838883CE010E9414
:100CB0002306CE010E94E802CE01DF91CF910C9471
:100CC0000B0380EF91E00C941705833008F062C0AD
:100CD000482F440F440F440F485F473108F046E166
:100CE000582F550F550F550F90E071E05417E8F449
:100CF0002EEF250F2231B0F4E52FF0E0DF01A35FE6
:100D0000BC4F2C91223070F4972BEE0FFF1FE25254
:100D1000FD4F21E030E0A72FA62311F420E030E0C2
:100D200031832083770F5F5FE1CF81110AC09C7F01
:100D3000F8942BB1892F809582239623892B8BB928
:100D400028C08130C9F46923F89425B1892F8F73A5
:100D500080958223262F2F73822B85B988B16295C7
:100D60006695669563709295969596959370909515
:100D70009823692B68B90DC09F70F89428B1892F0A
:100D8000880F880F809582236923660F660F862B54
:100D900088B9789408950F931F93CF93DF93EB0155
:100DA000863180F5082F10E0F801E35FFC4F908159
:100DB0009330A1F0943031F582508231E0F4F801A3
:100DC000E75AFD4F208130E0C901880F991F820F3B
:100DD000931F81599D4F0E94CC0F0DC0833041F06D
:100DE0009BEF980F923020F097EF980F933018F404
:100DF000BE010E942414F801EE0FFF1FE252FD4FC6
:100E0000D183C083DF91CF911F910F910895CF932C
:100E1000C82F883030F54091290350912A0321E0F2
:100E200030E0082E02C0220F331F0A94E2F7672B2E
:100E300049F4209530952423352330932A032093B9
:100E400029030FC0242B352B30932A032093290329
:100E50000E940714AC016C2F80EF91E0CF910C94AD
:100E60002A04CF910895DB019A0190914B029C30A6
:100E7000D0F540914C02682F70E0442369F0E42FD4
:100E8000F0E0E45BFD4F8081FB01E75AFD4F80837A
:100E9000415040934C0207C0FB01E75AFD4F90833D
:100EA0009F5F90934B02FB01E75AFD4F1A161B06FA
:100EB0007CF41216130664F4408150E0CA01880FD6
:100EC000991F840F951FAD0181599D4F0C94090FF7
:100ED000208130E0C901880F991F820F931F81592B
:100EE0009D4F0C94870F63E171E080EF91E00C94CB
:100EF000B904CF93DF93C82FD0E0C75ADD4F2881C4
:100F000030E0C901880F991F820F931F81599D4FAF
:100F10000E948D0F888190914B02891306C088230F
:100F200079F0815080934B020BC0992349F0E091F6
:100F30004C02EF5FE0934C02F0E0E45BFD4F8083F6
:100F40008FEF8883DF91CF9108951F93CF93DF9325
:100F5000162FC82FD0E0FE01E65FFC4F90811923C9
:100F6000CD5DDC4F411103C09881911741F0412FB5
:100F700050E0682F80EF91E00E9443041883DF91D6
:100F8000CF911F910895833020F5282F30E0F9018B
:100F9000EA5DFC4F6083672BE1F0F901E65FFC4FEF
:100FA0009081811103C069B16C7F0FC0813049F419
:100FB00063B126B140E4249F900111246F73622B2A
:100FC00004C066B16C7366956695692341E00C9424
:100FD000A507089580912603882349F069B180917F
:100FE0000A0368236C7F40E080E00E94A50780919F
:100FF0002703882379F063B186B120E4829FC00182
:1010000011246F73682B80910B03682340E081E00B
:101010000E94A50780912803882359F066B16C735C
:101020006695669580910C03682340E082E00C94FD
:10103000A5070895109295028FEF80930A010895F5
:10104000AF92BF92DF92EF92FF920F931F93CF93D5
:10105000DF9300D0CDB7DEB7D82E5B01E82EF12CA0
:101060008701035F1C4FF8018081863049F480912D
:101070009502882329F06630710511F00E941A0844
:101080004EEF4D0D4231C0F484E0A816B104A1F03A
:10109000F701E75AFD4F20812C3070F430E0C90190
:1010A000880F991F820F931F81599D4F4A830E9479
:1010B00031104A818111C3C092EF9D0D983078F4B0
:1010C00061E070E0E2E0AE16B10411F060E070E0C3
:1010D000892F4A8399830E94070799814A81423167
:1010E000D8F4ED2DE695E695E6958D2D8770F0E028
:1010F000E65FFC4F21E030E0082E01C0220F0A9489
:10110000EAF7A114B10421F48081822B808304C00A
:101110002095808128232083F701EE0FFF1FE252E4
:10112000FD4F11821082F2E0AF16B104A1F03CF441
:10113000A114B104F9F0AA94AB2851F16FC0F4E006
:10114000AF16B10409F448C084F1E6E0AE16B1046C
:1011500009F45CC063C0983008F089C0423140F4A3
:1011600060E08D2D0E94AC1460E08D2D0E94E5148E
:1011700082E051C0423108F07AC060E08D2D0E94BB
:10118000AC1460E08D2D0E94E514F80110826FC050
:10119000423108F06CC060E08D2D0E94E51461E0E2
:1011A0008D2D0E94AC1481E036C0F3E0DF1649F0CB
:1011B0008BEF8D0D823028F087EF8D0D833008F096
:1011C00056C061E08D2D0E94AC1460E070E08D2D62
:1011D0000E94241483E01FC0423108F048C084E01C
:1011E000F8018083F701E75AFD4F80818F3F69F155
:1011F00090E09C01220F331F280F391FC90181592C
:101200009D4F0E943110811132C01FC08EEE8D0D96
:10121000823068F586E0F801808329C067E271E0DA
:1012200080EF91E00F900F90DF91CF911F910F9180
:10123000FF90EF90DF90BF90AF900C94B9048D2D8C
:101240004A830E9479074A8137CF4FEF5FEF6FEFF4
:101250007FEF8D2D0F900F90DF91CF911F910F9108
:10126000FF90EF90DF90BF90AF900C9433070F90FA
:101270000F90DF91CF911F910F91FF90EF90DF9032
:10128000BF90AF900895CF93C0E08EEE8C0F823068
:1012900028F466E070E08C2F0E942008CF5FC631F2
:1012A000A1F781E08093950284E693E0CF910C94BE
:1012B000D7100F931F93CF93DF93809195028111E5
:1012C0000E941A081092260310920A031092230318
:1012D0001092270310920B031092240310922803FC
:1012E00010920C0310922503C9E5D2E010E00FEF35
:1012F00082EF810F883018F462E070E002C061E094
:1013000070E0812F0E94200809931F5F163181F73A
:1013100010922A031092290310924C0210924B0251
:10132000DF91CF911F910F91089524E042E068E38F
:1013300071E080EF91E00E9451034BEC56E060EECB
:1013400080EF91E00E94C70445E656E060E980EF37
:1013500091E00E94C70447E057E060EC80EF91E025
:101360000E94C70443EC57E060ED80EF91E00E94DB
:10137000C70440E258E064EF80EF91E00E94C704A8
:101380004BE55AE060EF80EF91E00E94F20449E5FE
:1013900059E06FEF80EF91E00E94EA0440E051EEE7
:1013A00060E070E080EF91E00E944A060E945909D7
:1013B0000C946C0DCF93DF93CFE6D2E0CE010E9468
:1013C000ED0E239682E0C339D807C1F7DF91CF91A4
:1013D0000895DF92EF92FF920F931F93CF93DF93C5
:1013E000F82EEB01D42E6F3F8FEF7807B9F06F2DF9
:1013F00084E693E00E94F1106C2F84E693E00E9453
:10140000981084E693E00E940E11809193029091CF
:101410009402009729F00E94C11302C0C0E0D0E0FE
:101420004D2D6F2D84E693E00E94EE100D2D10E0FF
:1014300084E693E00E944010081719071CF46FE43B
:1014400071E009C084E693E00E9440108017910784
:1014500034F467E771E080EF91E00E94B904F09204
:101460009602C093970268E9E62E62E0F62EC0E08D
:10147000D0E0C017D10784F042E04D0D26E932E0FC
:1014800067E780EF91E0DF91CF911F910F91FF907F
:10149000EF90DF900C94710484E693E00E9440107A
:1014A000892B51F384E693E00E944810F701819361
:1014B0007F012196DECFEF92FF920F931F93CF9380
:1014C000DF93162FEA018F3609F45CC178F4893670
:1014D00009F43CC220F4813509F450C25FC28B3656
:1014E00009F472C18D3609F4D8C158C2863761F04B
:1014F00020F4803709F4F3C051C2883709F4D5C00D
:101500008A3709F426C14AC28981982F987185FFCC
:1015100003C06EE971E058C08881983081F148F4C9
:1015200091113CC2682F84E693E00E94F11002E022
:1015300007C0903109F442C0983109F473C02EC23B
:10154000011778F4FE01E00FF11D8181608120E830
:10155000829F6019112484E693E00E9498100E5F28
:10156000EFCF84E693E00E940E1186E490E0DF91D5
:10157000CF911F910F91FF90EF900C94C1134A816E
:101580006B81163069F430E8639FB0011124640F59
:10159000711D9D814C8150E8959F4019112406C012
:1015A00090E8699F401911246FEF7FEFDF91CF9191
:1015B0001F910F91FF90EF900C94E909E0910A01BF
:1015C000E73064F06EEB71E080EF91E0DF91CF9156
:1015D0001F910F91FF90EF900C94B9049A812B8189
:1015E000F0E8663061F42F9F90011124290F311D1E
:1015F0004D819C8150E8459F9019112405C02F9F73
:10160000901911242FEF3FEFEF5FE0930A0144E0C0
:10161000E402F0011124EA54FD4F808332832183D8
:101620009383BCC150910A01151634F440E0252F74
:10163000332727FD30950EC08FEF80930A01AEC18E
:10164000EE0FFF1FEE0FFF1FEA54FD4F908198171A
:1016500019F14F5FE42FF0E02E173F078CF740E0C1
:101660001BC04830C0F4DF01AA0FBB1FAA0FBB1F6D
:10167000A654BD4F8C91EE0FFF1FEE0FFF1FEA54D3
:10168000FD4F808311968D919C9112979283818357
:1016900013968C9183834F5FE42FF0E02E173F0762
:1016A00004F7515050930A0179C12881898150E88B
:1016B000859FC0011124820F911D009721F0909306
:1016C00094028093930280919502811167C1DF910A
:1016D000CF911F910F91FF90EF900C9443096530CB
:1016E00008F45CC118810981FA80EB80CC818EEF0F
:1016F000810F823108F052C1E12FF0E0E75AFD4F2F
:10170000E081EC3060F4F0E0CF01880F991F8E0F7C
:101710009F1F81599D4F0E94311081113BC180E86C
:10172000C89FA00111244E0D511D90E8F99EB001F3
:101730001124600F711D812F0E94330764E070E057
:10174000812FDF91CF911F910F91FF90EF900C941B
:101750002008623008F422C128818981E0E88E9F48
:10176000C0011124820F911D90930C0180930B01F5
:101770000A9708F013C18AE090E090930C018093DF
:101780000B010CC1623008F409C1698170E01230AC
:1017900091F02A81F0E82F9F90011124622B732B86
:1017A000133049F08B8190E090E4899F902D882739
:1017B0001124682B792B8881DF91CF911F910F9194
:1017C000FF90EF900C94CB0660EF80EF91E00E94C9
:1017D000BD046CE680EF91E00E94BD04CEEF84EF83
:1017E0008C0F883058F462E080EF91E00E94BD04D5
:1017F0006AE080EF91E00E94BD040DC0C13059F451
:1018000063E080EF91E00E94BD0468E080EF91E02A
:101810000E94BD0408C08DEF8C0F823088F389EFE1
:101820008C0F833068F3C23150F464E080EF91E0B4
:101830000E94BD046EE080EF91E00E94BD0480EF45
:101840008C0F823050F466E080EF91E00E94BD047E
:1018500061E080EF91E00E94BD046FE780EF91E0CE
:101860000E94BD04CF5FC43169F1C23108F0B7CF27
:1018700060E080EF91E00E94BD0461E080EF91E0C4
:101880000E94BD0461E080EF91E00E94BD0461E030
:1018900080EF91E00E94BD04A2CF662309F47EC0D0
:1018A000C88160EF80EF91E00E94BD046EE680EF9A
:1018B00091E00E94BD046C2F80EF91E00E94BD0476
:1018C000C63158F067EF80EF91E0DF91CF911F9123
:1018D0000F91FF90EF900C94BD04D0E0FE01E35F08
:1018E000FC4F608180EF91E00E94BD04CC0FDD1FB2
:1018F0008E0102521D4FF80160816F7780EF91E0F9
:101900000E94BD04F80160817181CB018078892B30
:1019100049F0660F672F661F770B6F7780EF91E0B6
:101920000E94BD04C252DD4F68817981CB018827B6
:10193000907C892B39F2770F660B770F762F661F15
:101940006F7780EF91E00E94BD04BCCF60EF80EF25
:1019500091E00E94BD046AE680EF91E00E94BD0420
:10196000C2EFC83010F06FE701C06C2F80EF91E03C
:101970000E94BD04CF5FC830A1F7A4CF662371F0E9
:10198000BA01812FDF91CF911F910F91FF90EF90BE
:101990000C94780D812F0E947907C1CEDF91CF91F1
:1019A0001F910F91FF90EF9008958F929F92AF92A9
:1019B000BF92CF92DF92EF92FF920F931F93CF933C
:1019C000DF930E94EA0780EF91E00E94B103892B28
:1019D00029F080EF91E00E941D05F5CF0E946A1367
:1019E0006093DA027093DB028093DC029093DD0255
:1019F000C090D602D090D702E090D802F090D902E1
:101A000040910B0150910C014A01A12CB12C8B018A
:101A10009C010C191D092E093F0980169106A2068A
:101A2000B30608F04CC0D501C4018C0D9D1DAE1D40
:101A3000BF1D8093D6029093D702A093D802B09393
:101A4000D902CDE0D3E012EF1830C0F488818230A3
:101A5000A9F42091290330912A03012E02C0359563
:101A600027950A94E2F720FF09C0812F0E940714EE
:101A7000AC01612F80EF91E00E942A041F5F219644
:101A8000183011F780910A0187FD19C0C0E0EC2FD2
:101A9000F0E080910A01992787FD90958E179F07A6
:101AA00074F0EE0FFF1FEE0FFF1FEA54FD4F618130
:101AB0007281438180810E94E909CF5FE8CFDF9185
:101AC000CF911F910F91FF90EF90DF90CF90BF903B
:101AD000AF909F908F9008958BE293E00E94EA0070
:101AE0008BE293E00C94F7008BE293E00C94F70008
:101AF000CF92DF92EF92FF92CF93DF93FB01808131
:101B0000823009F446C070F4813009F097C06181D9
:101B10008BE293E0DF91CF91FF90EF90DF90CF9039
:101B20000C943D02833009F449C0843009F086C02A
:101B3000C280D12CE12CF12CA7E0CC0CDD1CEE1CDA
:101B4000FF1CAA95D1F7838190E0A0E0B0E0CEE041
:101B5000880F991FAA1FBB1FCA95D1F7C80ED91E9F
:101B6000EA1EFB1E8181C80ED11CE11CF11C848180
:101B700090E0A0E0B0E0D5E1880F991FAA1FBB1F3D
:101B8000DA95D1F7C80ED91EEA1EFB1EC0E0D0E0E0
:101B900008C0DF91CF91FF90EF90DF90CF900C9431
:101BA000740DA7019601BE018BE293E00E946702CB
:101BB0002196C11581E0D807A1F740C0248130E00B
:101BC00040E050E087E0220F331F441F551F8A95E5
:101BD000D1F7858190E0A0E0B0E06EE0880F991F1A
:101BE000AA1FBB1F6A95D1F7280F391F4A1F5B1F19
:101BF0008381280F311D411D511D868190E0A0E099
:101C0000B0E075E1880F991FAA1FBB1F7A95D1F725
:101C1000280F391F4A1F5B1F8281618170E090E8A5
:101C2000899F600D711D11248BE293E0DF91CF91AC
:101C3000FF90EF90DF90CF900C946702DF91CF91EF
:101C4000FF90EF90DF90CF90089523E046E060E0B2
:101C500071E08BE293E00C948C008BE293E00C94A7
:101C6000DB001F920F920FB60F9211242F933F9318
:101C70004F935F936F937F938F939F93AF93BF9394
:101C8000EF93FF9380913F0387FF05C0109285007B
:101C9000109284001AC020913F03332727FD30950E
:101CA00080913E0390E0281739077CF480913F0330
:101CB000992787FD9095FC01EE0FFF1FE80FF91F94
:101CC000E05CFC4F808186FD15C080913F038F5FF3
:101CD00080933F0320913F03332727FD3095809168
:101CE0003E0390E028173907BCF480913F038C3005
:101CF0005CF112C080913F03992787FD9095FC010C
:101D0000EE0FFF1FE80FF91FE05CFC4F808160E0E1
:101D10008F730E94E514D9CF809184009091850043
:101D2000049680329E4418F480E29EE405C08091BF
:101D30008400909185000496909389008093880098
:101D40008FEF80933F0338C020918400309185004D
:101D500080913F03992787FD9095FC01EE0FFF1FAF
:101D6000E80FF91FE05CFC4F81819281820F931F85
:101D7000909389008093880080913F03992787FD85
:101D80009095FC01EE0FFF1FE80FF91FE05CFC4F80
:101D9000808186FF11C080913F03992787FD909530
:101DA000FC01EE0FFF1FE80FF91FE05CFC4F808184
:101DB00061E08F730E94E514FF91EF91BF91AF91A5
:101DC0009F918F917F916F915F914F913F912F9153
:101DD0000F900FBE0F901F90189520913E032C304E
:101DE000A0F431E0320F30933E03FC012083822FB8
:101DF00090E0FC01EE0FFF1FE80FF91FE05CFC4FC5
:101E00008CED95E09283818308952FEFFC01208370
:101E10000895DF92EF92FF920F931F93CF93DF937A
:101E2000EC01D62E7A01890188818C3008F066C0D9
:101E300061E08D2D0E94AC148881A82FB0E0FD01D7
:101E4000EE0FFF1FEA0FFB1FE05CFC4F2D2D2F73E1
:101E50009081907C922B908360E272E06E197F09F2
:101E600077FF02C06D5F7F4F759567957595679594
:101E7000698340E659E0401B510B57FF02C04D5F9C
:101E80005F4F55954795559547954A836CE00E945D
:101E90008F179CE0899FB001112420E030E0A90158
:101EA000460F571FFA01EE0FFF1FE40FF51FE05C0E
:101EB000FC4F908196FD16C02F5F3F4F2C303105AF
:101EC00071F781110FC01092800082E08093810031
:101ED0001092850010928400B19A80916F00826008
:101EE00080936F00888190E0FC01EE0FFF1FE80FE8
:101EF000F91FE05CFC4F8081806480838881DF91E2
:101F0000CF911F910F91FF90EF90DF90089520E601
:101F100039E040E252E00C94090FFC01808190E02E
:101F2000FC01EE0FFF1FE80FF91FE05CFC4F808102
:101F30008F7B80830895FC0180818C3060F59181D6
:101F400028E830E0291B310997FD3395220F331F14
:101F5000220F331F621773077CF0928128E532E06D
:101F6000291B310997FD3395220F331F220F331F91
:101F7000621773070CF49B014FB7F89490E022505E
:101F80003109FC01EE0FFF1FE80FF91FE05CFC4F69
:101F9000328321834FBF08954F925F926F927F9259
:101FA000AF92BF92CF92DF92EF92FF920F931F9367
:101FB000CF93DF93EC01603282E078070CF040C0F1
:101FC00077FD06C0653B71052CF064EB70E002C044
:101FD00060E070E0898128E830E0281B310987FD46
:101FE0003395220F331F220F331F5901CC24B7FC26
:101FF000C094DC2C882777FD8095982F2A8148E5AE
:1020000052E0421B510927FD5395440F551F440FC1
:10201000551F2A01662457FC6094762C7F926F929C
:102020005F924F9214EBE12EF12C00E010E020E0E3
:1020300030E0A9010E9437170F900F900F900F907A
:10204000CE01DF91CF911F910F91FF90EF90DF9024
:10205000CF90BF90AF907F906F905F904F900C9417
:102060009B0FFC01808190E0FC01EE0FFF1FE80F49
:10207000F91FE05CFC4F808186FB882780F908957A
:102080008091940390E020919503821B910908951B
:102090002091950380919403281750F4E22FF0E0EB
:1020A000EA56FC4F808190E02F5F209395030895BE
:1020B0008FEF9FEF0895E091950380919403E817C7
:1020C00030F4F0E0EA56FC4F808190E008958FEF05
:1020D0009FEF08950895CF92DF92EF92FF920F93B2
:1020E0001F93CF93DF937C01CB018A012091700372
:1020F000222389F0EB016B01C40ED51ECC15DD0542
:1021000069F06991D701ED91FC910190F081E02D8A
:10211000C7010995F3CF642F0E94CA11C801DF914E
:10212000CF911F910F91FF90EF90DF90CF90089586
:10213000CF93DF931F92CDB7DEB7698320917003F1
:102140002223D1F020917103203240F021E030E0D1
:10215000FC013383228380E090E015C080917203FC
:10216000E82FF0E0ED58FC4F998190838F5F8093CA
:1021700072038093710305C061E0CE0101960E9455
:10218000CA1181E090E00F90DF91CF910895FC019A
:102190001382128248EE53E060E070E0448355837E
:1021A0006683778383ED91E0918380830895109215
:1021B00095031092940310927203109271030C9481
:1021C0001511862F413208F040E266E973E00E9463
:1021D00033111092950380939403089521E00C9499
:1021E000E11081E080937003609393031092720377
:1021F0001092710308950F93062F21E0409171030F
:1022000063E773E0809193030E9477111092720349
:1022100010927103109270030F91089561E00C9475
:10222000FB1084E693E00C94C7101092230481E025
:10223000809321041092200461E082E10E94E51461
:1022400061E083E10E94E514E9EBF0E080818E7F9C
:10225000808380818D7F808380E28093B80085E4D5
:102260008093BC000895413208F03FC09091230450
:102270009111FCCF91E090932304209321042FEF40
:102280002093B6031092FB03240F2093FA0390933C
:10229000220490912204880F892B8093220480913C
:1022A0002004813041F41092200480912204809314
:1022B000BB0085EC01C085EE8093BC0080912304B7
:1022C0008130E1F38091FB03841710F44091FB030C
:1022D0002CEF33E0FB01D9018A2F821B841718F4FD
:1022E0008D918193F9CF842F089580E008950F9305
:1022F000413208F046C0909123049111FCCF92E046
:1023000090932304009321049FEF9093B6031092BF
:10231000FB034093FA03FB016CEF73E0DB019A2FA0
:10232000961B941718F491919D93F9CF1092220463
:1023300090912204880F892B80932204809120049D
:10234000813041F410922004809122048093BB00DC
:1023500085EC01C085EE8093BC00222321F08091A2
:1023600023048230E1F38091B6038F3F61F08091C6
:10237000B603803251F08091B603803341F483E09C
:1023800007C081E005C080E003C082E001C084E0B6
:102390000F910895613298F420912304243089F438
:1023A0006093D803FC018AED93E0DC012A2F281BFF
:1023B000261718F421912D93F9CF80E0089581E03C
:1023C000089582E0089585ED8093BC008091BC0063
:1023D00084FDFCCF10922304089585EC8093BC000B
:1023E0001092230408951F920F920FB60F9211249A
:1023F0002F933F934F935F936F937F938F939F930D
:10240000AF93BF93EF93FF938091B900887F80369D
:1024100009F49CC068F5883209F45BC090F48031FF
:1024200009F454C038F4882309F4F5C0883009F45D
:102430004DC0F5C0883109F44CC0803209F45DC04C
:10244000EEC0803409F468C048F4803309F455C004
:10245000883309F0E4C08093B603A8C0803509F43E
:102460004FC0883509F45DC0883409F0D8C0D5C0A4
:10247000883909F4C6C0A8F4883709F467C038F46D
:10248000883609F463C0803709F460C0C8C0883852
:1024900009F4B7C0803909F45FC0803809F0BFC0C3
:1024A0005BC0803B09F485C038F4803A09F466C00B
:1024B000883A09F47EC0B3C0803C09F4A6C0883CC9
:1024C00009F4A3C0883B09F489C0A9C08091220403
:1024D00010C09091FB038091FA03981770F5E0917A
:1024E000FB0381E08E0F8093FB03F0E0E450FC4F90
:1024F00080818093BB0085EC85C08093B6038DC03E
:10250000E091FB0381E08E0F8093FB038091BB0081
:10251000F0E0E450FC4F80839091FB038091FA033C
:102520006DC0E091FB0381E08E0F8093FB038091EF
:10253000BB00F0E0E450FC4F8083809121048111C6
:102540006CC081E08093200484EA60C083E08093C3
:1025500023041092B703CFCF8091B703803208F0E5
:1025600050C0E091B70381E08E0F8093B703809154
:10257000BB00F0E0E854FC4F8083BDCF8091B703EF
:10258000803230F4E091B703F0E0E854FC4F108261
:102590000E94E3116091B70370E0E0911C04F09198
:1025A0001D0488EB93E009951092B7030E94ED118A
:1025B00036C084E0809323041092D9031092D8038C
:1025C000E0911E04F0911F0409958091D8038111B8
:1025D00005C081E08093D8031092DA03E091D9031B
:1025E00081E08E0F8093D903F0E0E652FC4F8081AA
:1025F0008093BB009091D9038091D803981708F479
:102600007ACF85E88093BC000AC085EC8093BC003B
:102610001092230404C01092B6030E94E311FF91AC
:10262000EF91BF91AF919F918F917F916F915F914A
:102630004F913F912F910F900FBE0F901F901895C3
:102640001F920F920FB60F9211242F933F938F93E7
:102650009F93AF93BF938091250490912604A091FE
:102660002704B09128043091240426E0230F2D374D
:1026700020F40296A11DB11D05C029E8230F039681
:10268000A11DB11D2093240480932504909326045A
:10269000A0932704B09328048091290490912A04E0
:1026A000A0912B04B0912C040196A11DB11D809323
:1026B000290490932A04A0932B04B0932C04BF9177
:1026C000AF919F918F913F912F910F900FBE0F90DF
:1026D0001F9018952FB7F8946091250470912604E7
:1026E00080912704909128042FBF08953FB7F89454
:1026F0008091290490912A04A0912B04B0912C047C
:1027000026B5A89B05C02F3F19F00196A11DB11D4C
:102710003FBF6627782F892F9A2F620F711D811D69
:10272000911D43E0660F771F881F991F4A95D1F7C7
:102730000895CF92DF92EF92FF92CF93DF936B01D8
:102740007C010E947613EB01C114D104E104F10471
:1027500089F00E947E170E9476136C1B7D0B683EE9
:10276000734090F381E0C81AD108E108F108C8511C
:10277000DC4FEACFDF91CF91FF90EF90DF90CF90C9
:1027800008958130910539F0029729F0880F991F3B
:1027900001970197F1F70895789484B5826084BD1C
:1027A00084B5816084BD85B5826085BD85B5816055
:1027B00085BDEEE6F0E0808181608083E1E8F0E0B5
:1027C0001082808182608083808181608083E0E8E4
:1027D000F0E0808181608083E1EBF0E080818460C3
:1027E0008083E0EBF0E0808181608083EAE7F0E0C5
:1027F0008081846080838081826080838081816029
:1028000080838081806880831092C10008958E301B
:1028100008F08E50877020910D0190E4299F90015F
:102820001124822B80937C0080917A0080648093B5
:102830007A0080917A0086FDFCCF8091780020910B
:10284000790090E0922B08951F93CF93DF93182F78
:10285000EB0161E00E94AC14209711F460E004C029
:10286000CF3FD10539F461E0812FDF91CF911F91E6
:102870000C94E514E12FF0E0E859FF4FE491E330C8
:10288000F9F048F4E130B9F0E230A1F584B58062A6
:1028900084BDC8BD34C0E730E9F0E83019F1E43058
:1028A00049F580918000806280938000D0938B00F6
:1028B000C0938A0024C084B5806884BDC7BD1FC092
:1028C00080918000806880938000D0938900C093BD
:1028D000880015C08091B00080688093B000C093DC
:1028E000B3000DC08091B00080628093B000C093AF
:1028F000B40005C0C038D1050CF0B5CFAFCFDF9123
:10290000CF911F910895833081F028F4813099F0A0
:102910008230A1F008958730A9F08830B9F0843072
:10292000D1F4809180008F7D03C0809180008F77EB
:1029300080938000089584B58F7702C084B58F7D21
:1029400084BD08958091B0008F7703C08091B0005E
:102950008F7D8093B0000895CF93DF9390E0FC01CA
:10296000E458FF4F2491FC01E057FF4F84918823E6
:1029700049F190E0880F991FFC01E255FF4FA591A6
:10298000B4918C559F4FFC01C591D4919FB76111B3
:1029900008C0F8948C91209582238C93888182239F
:1029A0000AC0623051F4F8948C91322F3095832311
:1029B0008C938881822B888304C0F8948C91822B1D
:1029C0008C939FBFDF91CF9108950F931F93CF9367
:1029D000DF931F92CDB7DEB7282F30E0F901E85919
:1029E000FF4F8491F901E458FF4F1491F901E0572A
:1029F000FF4F04910023C9F0882321F069830E94CE
:102A000083146981E02FF0E0EE0FFF1FEC55FF4FBC
:102A1000A591B4919FB7F8948C91611103C0109562
:102A2000812301C0812B8C939FBF0F90DF91CF91A9
:102A30001F910F910895FC01818D228D90E0805CA3
:102A40009F4F821B91098F7399270895FC01918DE7
:102A5000828D981731F0828DE80FF11D858D90E001
:102A600008958FEF9FEF0895FC01918D828D981747
:102A700061F0828DDF01A80FB11D5D968C91928D62
:102A80009F5F9F73928F90E008958FEF9FEF08955F
:102A900082EB96E1892B49F080E090E0892B29F0C8
:102AA0000E94B21681110C9400000895FC01848DDF
:102AB000DF01A80FB11DA35ABF4F2C91848D90E068
:102AC00001968F739927848FA689B7892C93A08943
:102AD000B1898C9180648C93938D848D981306C0FA
:102AE0000288F389E02D80818F7D80830895CF93C4
:102AF000DF93EC01888D8823C9F0EA89FB89808106
:102B000085FD05C0A889B9898C9186FD0FC00FB6D7
:102B100007FCF5CF808185FFF2CFA889B9898C9118
:102B200085FFEDCFCE010E945615E7CFDF91CF9103
:102B30000895CF92DF92FF920F931F93CF93DF936D
:102B40001F92CDB7DEB76C01DC015B969C915B9761
:102B50005C968C915C97981307C05096ED91FC9110
:102B60005197808185FD32C0F601038D10E00F5F23
:102B70001F4F0F731127F02EF601848DF81211C02C
:102B80000FB607FCF9CFD6015096ED91FC91519705
:102B9000808185FFF1CFC60169830E945615698146
:102BA000EBCF838DE80FF11DE35AFF4F6083D60111
:102BB0005B960C935B975296ED91FC9153978081B5
:102BC0008062808381E058968C930DC0D601569622
:102BD000ED91FC91579760835096ED91FC91519740
:102BE00080818064808381E090E00F90DF91CF91BD
:102BF0001F910F91FF90DF90CF900895BF92CF92D9
:102C0000DF92EF92FF92CF93DF93EC016A017B0199
:102C1000B22E60E874E88EE190E0A70196010E9470
:102C20009B17215031094109510956954795379510
:102C30002795E889F98982E08083211580E13807AA
:102C400098F0E889F989108260E472E48FE090E0FE
:102C5000A70196010E949B17215031094109510992
:102C60005695479537952795EC85FD853083EE85FC
:102C7000FF852083188EEC89FD89B082EA89FB8963
:102C8000808180618083EA89FB898081886080837C
:102C9000EA89FB89808180688083EA89FB89808159
:102CA0008F7D8083DF91CF91FF90EF90DF90CF9069
:102CB000BF9008951F920F920FB60F9211242F9379
:102CC0008F939F93EF93FF93E0913D04F0913E0427
:102CD0008081E0914304F091440482FD12C0908110
:102CE000809146048F5F8F7320914704821751F0C3
:102CF000E0914604F0E0E35DFB4F958F809346043E
:102D000001C08081FF91EF919F918F912F910F9042
:102D10000FBE0F901F9018951F920F920FB60F9233
:102D200011242F933F934F935F936F937F938F93D0
:102D30009F93AF93BF93EF93FF938DE294E00E9434
:102D40005615FF91EF91BF91AF919F918F917F9118
:102D50006F915F914F913F912F910F900FBE0F9008
:102D60001F9018958DE294E00E941B1521E0892B9D
:102D700009F420E0822F08951092300410922F045D
:102D800088EE93E0A0E0B0E08093310490933204A9
:102D9000A0933304B093340483EE91E090932E0417
:102DA00080932D0485EC90E090933A04809339044D
:102DB00084EC90E090933C0480933B0480EC90E0A2
:102DC00090933E0480933D0481EC90E09093400406
:102DD00080933F0482EC90E09093420480934104FE
:102DE00086EC90E090934404809343041092460450
:102DF00010924704109248041092490408950895CF
:102E00000E94CC130E94FF160E949509C8E4D5E1E8
:102E10000E94D50C2097E1F30E944815F9CFCF927C
:102E2000DF92EF92FF920F931F93CF93DF936C018A
:102E30007A01EB01E60EF71E00E010E0CE15DF058B
:102E400061F06991D601ED91FC910190F081E02D46
:102E5000C6010995080F191FF1CFC801DF91CF9165
:102E60001F910F91FF90EF90DF90CF9008954F92B8
:102E70005F926F927F92AF92BF92CF92DF92EF926A
:102E8000FF920F931F93CF93DF93CDB7DEB7290146
:102E90003A01621B730B840B950B29893A894B8984
:102EA0005C892A193B094C095D09298B3A8B4B8BAC
:102EB0005C8B9B01AC0169897A898B899C890E9412
:102EC0007F17E418F50806091709A80197010E9461
:102ED000BD172A0D3B1D4C1D5D1DCA01B901DF91B7
:102EE000CF911F910F91FF90EF90DF90CF90BF9007
:102EF000AF907F906F905F904F9008950895DB01A1
:102F00008F939F930E94DC17BF91AF91A29F800D7A
:102F1000911DA39F900DB29F900D11240895991BB0
:102F200079E004C0991F961708F0961B881F7A95C0
:102F3000C9F780950895A1E21A2EAA1BBB1BFD01BB
:102F40000DC0AA1FBB1FEE1FFF1FA217B307E40788
:102F5000F50720F0A21BB30BE40BF50B661F771FE0
:102F6000881F991F1A9469F76095709580959095C0
:102F70009B01AC01BD01CF010895052E97FB1EF406
:102F800000940E94D41757FD07D00E949B1707FC9E
:102F900003D04EF40C94D41750954095309521955C
:102FA0003F4F4F4F5F4F0895909580957095619575
:102FB0007F4F8F4F9F4F08950E94ED17A59F900D53
:102FC000B49F900DA49F800D911D11240895EE0FC4
:102FD000FF1F0590F491E02D0994A29FB001B39FCB
:102FE000C001A39F700D811D1124911DB29F700D12
:102FF000811D1124911D0895CF93DF938230910597
:1030000010F482E090E0E091CC04F091CD0420E057
:1030100030E0A0E0B0E0309739F1408151814817AD
:103020005907B8F04817590771F4828193811097B6
:1030300029F013969C938E9312972CC09093CD04F5
:103040008093CC0427C02115310531F04217530776
:1030500018F0A901DB0101C0EF019A01BD01DF01F8
:103060000280F381E02DD7CF21153105F9F0281B1F
:10307000390B2430310580F48A819B8161157105FB
:1030800021F0FB019383828304C09093CD0480934D
:10309000CC04FE01329644C0FE01E20FF31F81937F
:1030A000919322503109398328833AC02091CA0470
:1030B0003091CB04232B41F4209102013091030184
:1030C0003093CB042093CA04209100013091010178
:1030D0002115310541F42DB73EB7409104015091BF
:1030E0000501241B350BE091CA04F091CB04E217D3
:1030F000F307A0F42E1B3F0B2817390778F0AC011B
:103100004E5F5F4F2417350748F04E0F5F1F5093F7
:10311000CB044093CA048193919302C0E0E0F0E0B5
:10312000CF01DF91CF910895CF93DF93009709F4FA
:1031300087C0FC01329713821282C091CC04D091D7
:10314000CD04209781F420813181280F391F80918F
:10315000CA049091CB048217930779F5F093CB04BE
:10316000E093CA046DC0DE0120E030E0AE17BF0777
:1031700050F412964D915C9113979D0141155105A4
:1031800009F1DA01F3CFB383A28340815181840F27
:10319000951F8A179B0771F48D919C911197840F4D
:1031A000951F02969183808312968D919C9113971F
:1031B000938382832115310529F4F093CD04E093A4
:1031C000CC043EC0D9011396FC93EE9312974D9117
:1031D0005D91A40FB51FEA17FB0779F480819181F7
:1031E000840F951F0296D90111969C938E9382812C
:1031F000938113969C938E931297E0E0F0E08A817E
:103200009B81009719F0FE01EC01F9CFCE010296E7
:1032100028813981820F931F2091CA043091CB04F9
:103220002817390769F4309729F41092CD041092C9
:10323000CC0402C013821282D093CB04C093CA0480
:10324000DF91CF910895DC0101C06D934150504052
:10325000E0F70895FB01DC014150504048F0019037
:103260000D920020C9F701C01D9241505040E0F777
:103270000895FC0181E090E00190061609F4CF0169
:103280000020D1F701970895FB0151915523A9F032
:10329000BF01DC014D9145174111E1F759F4CD0112
:1032A0000190002049F04D9140154111C9F3FB01F7
:1032B0004111EFCF81E090E00197089510E0C2EC5A
:1032C000D0E004C0FE010E94E9172296C43CD10759
:0632D000C9F7F894FFCFDE
:1032D6000000CE04800001000000FF1300012E63F1
:1032E6007070004D617820736572766F732061741B
:1032F60074616368656400556E6B6E6F776E2070DF
:10330600696E206D6F6465006E6F64655F706978C5
:10331600656C5F6669726D6174612E696E6F0049D6
:1033260032432052656164204572726F723A2054AE
:103336006F6F206D616E7920627974657320726596
:10334600636569766564004932432052656164208D
:103356004572726F723A20546F6F206665772062ED
:1033660079746573207265636569766564003130CA
:103376002D6269742061646472657373696E672077
:103386006E6F7420737570706F7274656400746FFD
:103396006F206D616E7920717565726965730000C5
:1033A60000000098106B10401048105B106A100067
:1033B60000000099150F171B1534152615771500F3
:00000001FF
